:100000000C9478070C947F130C94E9130C949707C5
:100010000C9497070C9497070C9497070C949707E8
:100020000C9497070C9497070C9497070C949707D8
:100030000C9497070C9497070C9497070C949707C8
:100040000C9497070C945A130C9497070C949707E9
:100050000C9497070C9497070C9497070C949707A8
:100060000C9497070C944A140C9497070C949707D8
:100070000C9497070C9497070C9497070C94970788
:100080000C9497070C9497070C9497070C94970778
:100090000C9497070C94970700000FFE00000000D7
:1000A00000000000000000000000FFFFC000000092
:1000B00000000000000000000007FFFFF800007FC4
:1000C000FF8001FFFFFFFF80001FFFFFFC00007F9C
:1000D000FF8001FFFFFFFF80003FFFFFFF0000FFE9
:1000E000FF8001FFFFFFFF80007FFFFFFF8000FF19
:1000F000FF8001FFFFFFFF0000FFFFFFFF8001FF08
:10010000FFC003FFFFFFFF0000FFFFFFFFC001FF75
:10011000FFC003FFFFFFFF0001FFFFFFFFE003FF42
:10012000FFC003FFFFFFFF0001FFFFFFFFE003FF32
:10013000FFC003FFFFFFFE0003FFFFFFFFF003FF11
:10014000FFE007FFFFFFFE0003FFFFFFFFF007FFD9
:10015000FFE007FFFFFFFE0003FFFE07FFF00FFFBA
:10016000FFE007FFFFFFFE0007FFFC03FFF80FFFA4
:10017000FFE007FFE000040007FFF801FFF81FFFA2
:10018000FFE007FFE000000007FFF801FFF81FFF96
:10019000FFF00FFFC000000007FFFC00FFF83FFF6B
:1001A000FFF00FFFC000000007FFFE00FFF83FFF59
:1001B000FFF00FFFC000000007FFFF80FFF87FFF88
:1001C000FFF00FFFC000000003FFFFF000007FFF03
:1001D000FFF01FFFFFFFF80003FFFFFE0000FFFD21
:1001E000FFF81FFFFFFFF80001FFFFFF8000FFFC8B
:1001F000FFF81FFFFFFFF80001FFFFFFC001FFF83E
:10020000FFF81FFFFFFFF80000FFFFFFE001FFF80E
:10021000FFF81FFFFFFFF0000000000000000000DB
:1002200000000000000000000000000000000000CE
:1002300000000000000000000000000000000000BE
:1002400000000000000000000003FFFFFE07FFE0C9
:100250007FFC3FFFFFFFE0000001FFFFFF0FFFE01B
:10026000FFFC3FFFFFFFE00000007FFFFF0FFFC02C
:100270007FFC7FFFFFFFE00000000FFFFF9FFFC03C
:10028000FFFC7FFFFFFFE000000003FFFF9FFFFF79
:10029000FFFE7FFE00000000000000FFFFBFFFFF29
:1002A000FFFE7FFC000000000000007FFFFFFFFF5B
:1002B000FFFEFFFC00000000FFFE007FFFFFFFFFCE
:1002C000FFFEFFFC00000000FFFF003FFFFFFFFFFD
:1002D000FFFEFFFC00000000FFFF007FFFFFFFFFAD
:1002E000FFFFFFFC00000000FFFF80FFFFFFFFFF9C
:1002F000FFFFFFFDFFFF8000FFFFF3FFFFFFFFFF9A
:10030000FFFFFFFFFFFF8000FFFFFFFFFFFFFFFF7B
:10031000FFFFFFFFFFFF80007FFFFFFFFFFFFFFFEB
:10032000FFFFFFFFFFFF80007FFFFFFFFFFFF800E1
:100330007FFFFFFFFFFF80007FFFFFFFFFFFF00059
:100340003FFFFFFFFFFF00003FFFFFFFFFFFF00049
:100350003FFFFFFFFFFF00003FFFFFFFFFFFE00049
:100360003FFFFFFFFFFF00001FFFFFFFFFFFE00059
:100370003FFFFFFFFFFF00000FFFFFFFFFFFC00079
:100380001FFFFFFFFFFF01F80FFFFFFFFFFFC00090
:100390001FFFFFFFFFFE020403FFFFFFFFFF8000C0
:1003A0001FFFFFFFFFFE04F201FFFFFFFFFF8000C2
:1003B0001FFFFFFFFFFE048300FFFFFF7FFF000022
:1003C0001FFFFFFFFFFE0C91003FFFF87FFE0000C4
:1003D0000FFFFFFFFFFC08F10003FFC0000000005B
:1003E0000000000000000481000000000000000088
:1003F0000000000000000492000000000000000067
:1004000000000000000006060000000000000000E0
:10041000000000000000030C0000000000000000CD
:1004200000000000000000F0001FF800001FF800AE
:1004300001FFF80003FFF80000007FC007FFFFC0C6
:100440000007FF801FFFFFE0003FF800003FF800BB
:10045000000000000000000000000000000FE000AD
:1004600000007FFE0001FFF8000FFFFE000FFFFFFE
:10047000000000FFC007FFFFC0003FFFE01FFFFFBD
:10048000E000FFFE0000FFFE000000000000000092
:100490000001F00000000FE0000000FFFF0003FF7C
:1004A000F8000FFFFF800FFFFF800000FFC007FF75
:1004B000FFC0007FFFE01FFFFFE001FFFF0001FF23
:1004C000FF00000000000000000007FC0000000F1B
:1004D000E0000001FFFF8003FFF8000FFFFFC00FE7
:1004E000FFFFC00001FFC007FFFFC000FFFFE01FCC
:1004F000FFFFE003FFFF8003FFFF8000000000001C
:100500000000001FFF0000000FE0000003FFFFC01D
:1005100003FFF8000FFFFFC00FFFFFE00003FFC065
:1005200007FFFFC001FFFFE01FFFFFE007FFFFC065
:1005300007FFFFC000000000000000001FFF0000D8
:10054000000FE0000003FFFFC003FFF8000FFFFFF4
:10055000E00FFFFFE00003FFC007FFFFC003FFFF46
:10056000E01FFFFFE007FFFFC007FFFFC000000024
:1005700000000000003FFF8000000FE0000007FCCB
:100580003FE003FFF8000F803FE00E003FF0000760
:10059000FFC007FFFFC003FC00E01FFFFFE00FF8F4
:1005A0003FC00FF01FE000000000000000003F1FF0
:1005B0008000000FE0000007F81FE003E7F8000CE0
:1005C000001FF000001FF0000FFFC007E000000751
:1005D000F8002000001FC00FF01FE00FE00FE00048
:1005E000000000000000007E0FC000000FE00000CF
:1005F0000FF00FF00207F80000000FF000000FF0FE
:10060000000FFFC007E0000007F0000000003FC03F
:100610000FE00FE01FE00FF00000000000000000FE
:100620007C07C000000FE000000FF00FF00007F89B
:100630000000000FF000000FF0001FBFC007E00037
:10064000000FE0000000003FC00FE00FE01FC007F8
:10065000F000000000000000007C07C000000FE078
:1006600000000FF00FF00007F80000000FF000008E
:100670000FF0001FBFC007E000000FE00000000007
:100680007F800FE00FE01FC007F0000000000000B7
:1006900000007C07C000000FE000000FF00FF0002A
:1006A00007F80000000FF000000FF0003F3FC00708
:1006B000E000000FE0000000007F800FE00FE01F6F
:1006C000C007F000000000000000007E0FC0000026
:1006D0000FE000001FE007F80007F80000000FF02F
:1006E00000001FE0007F3FC007E000000FC00000D7
:1006F00000007F000FE00FE01FC007F800000000BF
:10070000000000003F1FC000000FE000001FE007D6
:10071000F80007F80000001FF000007FE0007E3FB7
:10072000C007E000001FC3F8000000FF000FF01F2B
:10073000C01FC007F800000000000000003FFF805D
:100740000C000FE000001FE007F80007F8000000B1
:100750001FE0003FFFC000FC3FC007EFF0001FCFCD
:10076000FF000000FF0007F01FC01FC007F80000D7
:100770000000000000001FFF003C000FE000001F11
:10078000E007F80007F80000003FE0003FFF8001AD
:10079000FC3FC007FFFC001FDFFF800000FE0007DA
:1007A000F83FC01FC007F800000000000000001F55
:1007B000FF01FE000FE000001FE3C7F80007F8008C
:1007C00000003FC0003FFE0001F83FC007FFFF00F0
:1007D0001FFFFFC00001FE0003FFFF801FE00FF8B6
:1007E000000000000000000007FC07F0000FE00020
:1007F000001FE7E7F80007F80000007FC0003FF89F
:100800000003F03FC007FFFF801FFFFFE00001FC77
:100810000001FFFF001FE00FF800000000000000D3
:100820000001F03FC0000FE000001FE7E7F80007FD
:10083000F8000000FF80003FFF0007F03FC007FF07
:10084000FFC01FFFFFE00003FC00007FFC000FF073
:100850001FF800000000000000000000FE00000F74
:10086000E000001FE7E7F80007F8000001FF0000C4
:100870003FFF8007E03FC007FFFFE01FFC1FF000C5
:1008800003FC0000FFFE000FF83FF800000000002E
:100890000000000003F800000FE000001FE7E7F889
:1008A0000007F8000003FE00003FFFC00FC03FC07C
:1008B0000780FFE01FF80FF00003F80001FFFF00C2
:1008C0000FFFFFF80000000000FFFF00001FE00026
:1008D000000FE000001FE3C7F80007F8000007FC66
:1008E0000000007FE00FC03FC004003FF01FF00792
:1008F000F80007F80003FFFF8007FFFFF800000083
:100900000000FFFF00007F0000000FE000001FE07C
:1009100007F80007F800000FF80000001FF01F8024
:100920003FC000001FF01FF007F80007F80007F8AD
:100930003FC003FFFFF80000000000FFFF0001FCC4
:1009400007C00007C000001FE007F80007F800001C
:100950001FF00000000FF01F003FC000000FF81F45
:10096000E003F8000FF0000FF01FE001FFFBF800BC
:1009700000000000FFFF000FE01FF00007C00000B4
:100980001FE007F80007F800003FE00000000FF844
:100990001FFFFFFC000007F81FE003F8000FF00046
:1009A0000FE00FE000FFF3F80000000000FFFF0081
:1009B0001F807FFC0007C000001FE007F80007F859
:1009C00000007FC000000007F81FFFFFFC000007C9
:1009D000F81FE003F8000FE0001FC007F0003FC35E
:1009E000F80000000000FFFF001E007FFC0007C0B1
:1009F00000000FE007F00007F80000FF8000000093
:100A000007F81FFFFFFC000007F81FE003F8001FB6
:100A1000E0001FC007F0000003F00000000000FF2E
:100A2000FF001000FFFE00000000000FF00FF000BC
:100A300007F80000FF0000000007F81FFFFFFC00A0
:100A40000007F80FE003F8001FE0001FC007F000E8
:100A50000007F000000000000000000001FC7E0024
:100A6000000000000FF00FF00007F80001FE00008A
:100A7000000007F81FFFFFFC000007F80FE003F875
:100A8000001FC0001FC007F0000007F000000000BA
:100A9000000000000001F83F00000000000FF00F10
:100AA000F00007F80003FC0000000007F81FFFFF3C
:100AB000FC000007F80FE003F8003FC0001FC0076C
:100AC000F0000007F000000000000000000001F04E
:100AD0001F000000000007F01FE00007F80007F803
:100AE000000000000FF800003FC000000FF80FF0FA
:100AF00007F8003F80001FC007F000000FE0000F64
:100B0000F000000000000001F01F000000000007DE
:100B1000F81FE00007F8000FF0000018001FF000B9
:100B2000003FC000000FF00FF007F0007F80001FB3
:100B3000E00FF000001FE0000FF0000000000000D8
:100B400001F01F000FE0000007FC3FE007FFFFFC83
:100B50001FFFFFF01F807FF000003FC008003FF044
:100B600007F80FF0007F80000FF01FE006003FE065
:100B7000000FF000000000000001F83F000FE0004F
:100B80000003FFFFC007FFFFFC1FFFFFF01FFFFF79
:100B9000F000003FC00F00FFE007FC1FF0007F00E7
:100BA000000FF83FE007C0FFC0000FF0000000009A
:100BB000000001FC7E000FE0000001FFFF8007FF46
:100BC000FFFC1FFFFFF01FFFFFE000003FC00FFF13
:100BD000FFE003FFFFE000FF00000FFFFFE007FF63
:100BE000FF80000FF000000000000000FFFE000F7B
:100BF000E0000001FFFF8007FFFFFC1FFFFFF01F69
:100C0000FFFFC000003FC00FFFFFC003FFFFC00099
:100C1000FE000007FFFFC007FFFF80000FF000008D
:100C200000000000007FFC000FE0000000FFFF005C
:100C300007FFFFFC1FFFFFF01FFFFF8000003FC00A
:100C40000FFFFF8001FFFFC001FE000003FFFF80D8
:100C500007FFFF00000FF0000000000000007FFC15
:100C6000000FE00000003FFC0007FFFFFC1FFFFF3C
:100C7000F00FFFFE0000003FC00FFFFF0000FFFF6E
:100C80008001FE000001FFFF0007FFFC00000FF0E5
:100C9000000000000000001FF0000FE00000000F47
:100CA000F00007FFFFFC1FFFFFF000FFF000000057
:100CB0003FC00FFFFC00003FFE0001FC000000FFF2
:100CC000FE0007FFF800000FF00000000000000029
:100CD00007C000000000000000000000000000004D
:100CE000000000000000000000000000FFE0000025
:100CF0000FF80000000000001FF000007FC000009F
:100D000000000000000000000000000000000000E3
:100D10000114A261041200000000711CE17CDF7369
:100D20008001020E73BCEE7FEE8B8318462EF3BC5F
:100D3000EFC6318C7EE0388040200080408105067F
:100D40000000000004000000006230150114A7E656
:100D50008421144000018B231341018C58C20111DE
:100D60008C631942118903286E318C631246318CD1
:100D70004288094040200080A0800102000000005D
:100D8000040000000082080A0101FA0A804088403D
:100D900000029902157A028C58C47C81AC6308C2A7
:100DA0001089034857318C630246315284840A20EB
:100DB00023BCF7B88EF30D226BCEF3EEFE46318CDA
:100DC0007E8209150100A7110040BFF07C04A90C28
:100DD000E907C473C0080042BFFD08FBD0F90388CF
:100DE00056B1F47CE245552108820800006308C52D
:100DF000D189054256318C7104463154450206AA08
:100E00000101F2A2A04088460008C9101F86288868
:100E100058C47C84A46308C213892348467185683A
:100E2000124555511081080003E308FC91890582A1
:100E300056318C60E4463524488208550000AF4E98
:100E400040211446019089211146288898C201004A
:100E50008463194211892328463184A512449B8951
:100E600020808800046308C08F8905425631F3E072
:100E700015455553D082080A0100A20DA0120002A8
:100E8000018073BEE139C873004102047C7CEE7EB0
:100E90000F8B9D1FC62E8362E23891893EE0381F7A
:100EA00003FCF7B8818BA527462E8061E23C8A8837
:100EB0007E62301500000000000000040000000009
:100EC00000000000008000000000000000000000A2
:100ED0000000000000000000000000000000000012
:100EE0000E00180000008040000000038000000099
:100EF00011241FBECFEFD0E2DEBFCDBF11E0A0E0D6
:100F0000B1E0E6E4F0E300E00BBF02C007900D9211
:100F1000A03AB107D9F713E0A0EAB1E001C01D92F1
:100F2000A33BB107E1F70E9421150C9421180C9402
:100F30000000FC018A988C9821B3808130E1839F66
:100F4000C0011124282B21BB8B9891B38181880F7C
:100F5000880F880F892B81BB81B38C7F81BB8EB1B9
:100F60008F738EB985B1807F85B981B381BB81B321
:100F700081BB8EB18EB98EB18EB985B185B985B17F
:100F800085B92A9A85B185B92C9825B1838130E13C
:100F9000839FC0011124282B25B92D9825B1848168
:100FA00030E2839FC0011124282B25B98A9A8A98A0
:100FB0000895CF93DF93FC01D2818A988C98C1B3B6
:100FC000808120E1829FC0011124C82BC1BB8B9876
:100FD00091B38181880F880F880F892B81BB81B3E2
:100FE0008C7F81BB8EB18F738EB985B1807F85B9BF
:100FF00081B3AD2FA170B0E0AA0FBB1F8A2B81BBBC
:101000008D2F8695A1B3982F91709A2B91BB8695C1
:101010009EB1682F617070E0002476956795079403
:10102000769567950794762F602D962B9EB9782F2D
:1010300076956EB130E8739FC0011124682B6EB9AC
:10104000872F869565B1982F9170962B95B98695C7
:1010500095B1482F417050E0440F551F942B95B91E
:10106000869595B1282F217030E0220F331F220F73
:10107000331F922B95B995B18695880F880F880FED
:10108000892B85B92C9825B1838130E1839FC001DC
:101090001124282B25B92D9825B1848130E2839F16
:1010A000C0011124282B25B98A9A8A98DF91CF9103
:1010B00008951F93CF93DF9300D000D01F92CDB738
:1010C000DEB788EB8B8319821A8281E08C838D8353
:1010D00018E0CE0101960E94D9078B818F5F8B8328
:1010E00080E890E08A988C988C9A8B9821B321BBE9
:1010F00021B32C7F21BB2EB12F732EB925B1207FB8
:1011000025B921B321BB21B321BB2EB12EB92EB1FC
:101110002EB925B125B925B125B925B125B925B1F6
:1011200025B92C982C9A2D982D9A8A9A8A980197ED
:101130000097C1F6115069F680E48B83CE010196C9
:101140000E9499070F900F900F900F900F90DF91D2
:10115000CF911F9108951F93CF93DF9300D000D0BC
:101160001F92CDB7DEB78FE784B980EC8DB98FE1E0
:1011700080BB2E9A8FE38B8319821A8211E01C8325
:101180001D83CE0101960E94D90788EB8B831982BB
:101190001A821C831D8318E0CE0101960E94D90794
:1011A0008B818F5F8B8380E890E08A988C988C9AF3
:1011B0008B9821B321BB21B32C7F21BB2EB12F7380
:1011C0002EB925B1207F25B921B321BB21B321BB85
:1011D0002EB12EB92EB12EB925B125B925B125B91B
:1011E00025B125B925B125B92C982C9A2D982D9A81
:1011F0008A9A8A9801970097C1F6115069F680E49F
:101200008B83CE0101960E9499070F900F900F904B
:101210000F900F90DF91CF911F9108958A988C982D
:1012200081B381BB8B9881B381BB81B38C7F81BB40
:101230008EB18F738EB985B1807F85B9899A889A6E
:10124000769A779A289A299A85B185B985B185B910
:101250002C982C9A2D982D9A8A9A8A9808955F92A4
:101260006F927F928F929F92AF92BF92CF92DF92B6
:10127000EF92FF920F931F93CF93DF93CDB7DEB71B
:101280002A970FB6F894DEBF0FBECDBF4C0180E4A5
:1012900088871E821F827724739479867A86CE018E
:1012A00006960E9499077E8288EB8B8319821A82A8
:1012B0007C827D82340160E4660E711C70EC871ABA
:1012C0007DEF970A55245394CE0101960E94D907C9
:1012D0008B818F5F8B83930140E04987842F852525
:1012E0008A87F901E054F109519158878A988C98BE
:1012F00061B38E8170E1879FC0011124682B61BBAF
:101300008B9891B38F81880F880F880F892B81BBB1
:1013100081B38C7F81BB8EB18F738EB985B1807F95
:1013200085B981B3052F017010E0000F111F802BCC
:1013300081BB652F669581B3962F9170982B91BBD9
:1013400066959EB160FBEE24E0F8F12C0024F69443
:10135000E7940794F694E7940794FE2CE02C9E29DA
:101360009EB966955EB170E8679FC0011124582B45
:101370005EB9862F869555B1982F9170952B95B9AA
:10138000869595B180FBCC24C0F8D12CCC0CDD1C0B
:101390009C2995B9869595B180FBAA24A0F8B12C1B
:1013A000AA0CBB1CAA0CBB1C9A2995B995B18695B1
:1013B000880F880F880F892B85B92C9855B189859E
:1013C00060E1869FC0011124582B55B92D9855B165
:1013D0008A8570E2879FC0011124582B55B98A9ADB
:1013E0008A982E173F0709F07FCF4F5F3E5F42304C
:1013F00009F073CF80E4680E711C6814790409F059
:1014000063CF2A960FB6F894DEBF0FBECDBFDF9133
:10141000CF911F910F91FF90EF90DF90CF90BF90F1
:10142000AF909F908F907F906F905F9008952F92D4
:101430003F924F925F926F927F928F929F92AF9264
:10144000BF92CF92DF92EF92FF920F931F93CF93B1
:10145000DF93CDB7DEB72E970FB6F894DEBF0FBE81
:10146000CDBFD401B695A795B695A795B695A79586
:10147000BE83AD83542F569556955695A42FB0E054
:10148000B887AF83E52FF0E048E0549FA019B10979
:101490001124BA83A983AA2DB0E0BA87A987AB2B00
:1014A00009F4F9C06F807884769467947694679491
:1014B00076946794B8E06B16710408F0ECC0AC2C1D
:1014C000B12C462F50E05C834B83AD81BE81AE9D35
:1014D0004001AF9D900CBE9D900C1124412C512CCD
:1014E0004F5F5F4F5E874D871801209430947301E2
:1014F00039016801EE15FF0509F494C021E030E0E0
:101500003A83298320E0A114B10409F46AC0AB81B5
:10151000BC81A038B10508F064C0E22FA1E001C091
:10152000AA0F2A95EAF7BBA1B13009F482C0B11124
:1015300058C06D857E854B815C8120E030E087015D
:101540000024169507950794169507950794102F74
:10155000002D5C864B86270178011E2F39C0405430
:101560005109A0E0B0E0A80FB91FF901EC0DFD1D75
:10157000F695E795F695E795F695E795E80DF91D4B
:10158000E60DF71DE4914E0D5F1DA40FB51FF0E0B1
:10159000A101421B530B4770552702C0F595E795F3
:1015A0004A95E2F7E170FF27012E01C0EE0F0A9481
:1015B000EAF74C914E2B4C932F5F3F4F2A153B057A
:1015C00068F4FB013196E138F10541F0AB01BF0150
:1015D0004034510520F6A0E0B2E0C5CF72014B8443
:1015E0005C843FEF431A530A49855A8544165506D1
:1015F00008F051C02F813885240D351D369527956B
:1016000036952795369527954D815E81840E951EDA
:101610002830310508F03FC0F7017901EE15FF05CC
:1016200009F06CCF2981A981BA811196BA83A98367
:101630006ACF6D857E852B813C8140E050E087013B
:101640000024169507950794169507950794102F73
:10165000002D1BC020543109E0E0F0E0E80FF91F35
:10166000200F311FE20FF31F20812A2720834F5FB5
:101670005F4F4A155B0508F0B4CFFB013196E138A6
:10168000F10509F4AECF9B01BF012034310510F7FD
:10169000E0E0F2E0E3CF2E960FB6F894DEBF0FBE87
:1016A000CDBFDF91CF911F910F91FF90EF90DF9011
:1016B000CF90BF90AF909F908F907F906F905F90F2
:1016C0004F903F902F90089520E030E040E4F901E2
:1016D000E80FF91FDF01542F1D925A95E9F7205C9E
:1016E0003F4F2115A2E03A0791F720E030E09E5FDE
:1016F00040E4FC01E20FF31FDF01542F1D925A95C5
:10170000E9F7205C3F4F2115A2E03A0791F70895D1
:101710002F923F924F925F926F927F928F929F9201
:10172000AF92BF92CF92DF92EF92FF920F931F93EF
:10173000CF93DF93CDB7DEB7E3970FB6F894DEBF54
:101740000FBECDBF9EA38DA34BA7862F90E09FA772
:101750008EA72CA73DA798A78FA31AA619A6ACA55C
:10176000BDA58D91BDA7ACA7882309F423C28A30FB
:1017700009F454C22FA138A52B5F3F4F2138310502
:1017800038F0BBA5B75FBBA72EA53FA538A72FA3F1
:10179000992787FD90958097BC01660F771F660F8C
:1017A000771F680F791F8BA5882E912C282F2695DF
:1017B00026952695A22FB0E0B9ABA8AB8401B8E07E
:1017C0002B9F0019110911242FA138A533273BABFA
:1017D0002AABCB0196958795969587959695879593
:1017E0009A87898779019FEFE91AF90A6B01AFEFB0
:1017F000CA1ADA0AF601F695E795F695E795F69591
:10180000E795FC87EB875901F2E0AF0EB11CDB01D5
:1018100012969D01369527953695279536952795ED
:10182000388B2F876AA87BA833E0630E711CCB012D
:1018300003969E838D839695879596958795969525
:1018400087959A8B898B4AA85BA894E0490E511C16
:10185000FB013496F887EF83F695E795F695E795C3
:10186000F695E795AF01405F524F2AA83BA820E4C8
:10187000221A31088AA99BA98034910508F41C0119
:101880002AA93BA92034310508F4C5C120E030E085
:101890008DA19EA1820F931F9C8B8B8B2AA93BA9A4
:1018A0002F53310990E4E916F10408F4B1C1388FDF
:1018B0002F8B20E4E216F10408F4A7C120E030E009
:1018C0008DA19EA1820F931F9E8B8D8B2AA93BA970
:1018D0002E53310990E4A916B10408F493C13C8F4A
:1018E0002B8F20E4A216B10408F489C120E030E077
:1018F0008DA19EA1820F931F9A8F898F2AA93BA940
:101900002D53310990E46916710408F475C138A3A8
:101910002F8F20E46216710408F46BC120E030E0E0
:101920008DA19EA1820F931F9E8F8D8F2AA93BA907
:101930002C53310990E44916510408F457C13CA3D3
:101940002BA320E44216510408F44DC120E030E0FE
:101950008DA19EA1820F931F9AA389A320E030E05E
:1019600089859A858E1B9F0B9A87898760957095CC
:10197000677077277C836B836B857C856E1B7F0B01
:101980007C876B87C60180959095877099279E8785
:101990008D876F8578896E1B7F0B788B6F87CD0164
:1019A00080959095877099279A838983A989BA89A8
:1019B000AE1BBF0BBA8BA98B6D817E816095709534
:1019C000677077277E836D838F819885809590954A
:1019D0008770992798878F8388A999A939AB28ABF5
:1019E0006701C7C001E010E0E12C6AA97BA960385B
:1019F000710508F0B2C089859A85840F951FFC0196
:101A00008491B9010024769567950794769567953A
:101A10000794762F602DFB01E20DF31DAB89BC8985
:101A2000EA0FFB1F90E00B8002C0959587950A9402
:101A3000E2F7817099270E2C01C0880F0A94EAF70B
:101A40009081982B9083B0E8CB16D10409F485C01F
:101A5000EB85FC85E40FF51F8491EF89F88DE60F87
:101A6000F71FAD89BE89EA0FFB1F90E00D8402C00D
:101A7000959587950A94E2F7817099270E2C01C0FD
:101A8000880F0A94EAF79081982B9083B0E8AB1600
:101A9000B10409F462C0EF85F889E40FF51FE49101
:101AA0008B8D9C8D860F971FA98DBA8D8A0F9B1FDA
:101AB000F0E0098002C0F595E7950A94E2F7E1703D
:101AC000FF270E2C01C0EE0F0A94EAF7DC01FC910F
:101AD000FE2BFC93B0E86B16710409F43EC0E98953
:101AE000FA89E40FF51FE4918F8D98A1860F971F57
:101AF000AD8DBE8D8A0F9B1FF0E00D8002C0F59565
:101B0000E7950A94E2F7E170FF270E2C01C0EE0F73
:101B10000A94EAF7DC01FC91FE2BFC93B0E84B162B
:101B20005104D9F0FA018491EBA1FCA1E60FF71F53
:101B300069A17AA1E60FF71F90E00F8002C095958A
:101B400087950A94E2F7817099270E2C01C0880FBF
:101B50000A94EAF79081982B908388A999A9019615
:101B600099AB88AB445C5F4F0897B1F0C90128A9D5
:101B700039A9280D391D369527953695279536951F
:101B800027952830310540F42817390709F02ACF66
:101B9000E02E0F5F1F4F29CFAFA1B8A51696B8A7AB
:101BA000AFA3A9A5BAA51196BAA7A9A7A93CB10543
:101BB00009F0D5CDE3960FB6F894DEBF0FBECDBFCA
:101BC000DF91CF911F910F91FF90EF90DF90CF9019
:101BD000BF90AF909F908F907F906F905F904F904D
:101BE0003F902F90089520E032E0B2CE5CA24BA24D
:101BF000A8CE20E032E094CE78A26F8E8ACE20E08C
:101C000032E076CEBC8EAB8E6CCE20E032E058CE89
:101C1000F88EEF8A4ECE20E032E03ACE9BA5975F59
:101C20009BA7AEA5BFA5B8A7AFA3BBCF2F923F92EE
:101C30004F925F926F927F928F929F92AF92BF92DC
:101C4000CF92DF92EF92FF920F931F93CF93DF9388
:101C5000CDB7DEB72D970FB6F894DEBF0FBECDBF60
:101C60001C0169833B832A83D9015C91552309F4C4
:101C7000A6C0842F869586958695242F30E03D83D7
:101C80002C83682F70E07F836E8378E0879F201914
:101C90003109112439872887612C952F862C80EDF6
:101CA000890F8A3008F42EC1953209F4D1C10CF0A5
:101CB000A5C0903209F4C6C2913209F078C00C81F7
:101CC0001D81C884D9848E819F8140E050E0B98114
:101CD000AB2EB12CF801F695E795F695E795F695BC
:101CE000E795E830F10508F05FC0E817F90709F457
:101CF0007FC0CC24C394D12C912C950180EA91E033
:101D0000BF010024769567950794769567950794AB
:101D1000762F602D78013F0132C000541109A0E0F8
:101D2000B0E0A20DB31DFC01F695E795F695E79599
:101D3000F695E795E40FF51FE85DFB4FE491060F7C
:101D4000171FA00FB11FF0E08C01009510950770D0
:101D5000112702C0F595E7950A95E2F7E170FF2794
:101D6000092C01C0EE0F0A94EAF7FC91FE2BFC93BC
:101D70002F5F3F4F0196803CA1E09A0751F0203839
:101D8000310538F489012034310538F6A0E0B2E09D
:101D9000C8CF87010F5F1F4F475C5F4F483E38E059
:101DA000530711F0C30196CF1981125E19838394F2
:101DB000EA81FB81E80DF11D9081911170CF2D9684
:101DC0000FB6F894DEBF0FBECDBFDF91CF911F914C
:101DD0000F91FF90EF90DF90CF90BF90AF909F90CA
:101DE0008F907F906F905F904F903F902F900895CD
:101DF0009C2C96012F5F3F4F69017FCF9D3209F4E4
:101E0000A3C19E32A1F60C811D81C884D9848E8124
:101E10009F8140E050E0A980A2EFAA0EB12CF8010A
:101E2000F695E795F695E795F695E795E830F1058F
:101E300008F002C1E817F90709F45EC0CC24C39486
:101E4000D12C912C950180E491E0BF01002476957E
:101E500067950794769567950794762F602D78019E
:101E60002F0134C0A0E46A1A7108A0E0B0E0A20D0E
:101E7000B31DFC01F695E795F695E795F695E79580
:101E8000E40FF51FE85DFB4FE491660E771EA60D8B
:101E9000B71DF0E03C016094709417E06122772454
:101EA00002C0F595E7956A94E2F7E170FF27092CE7
:101EB00001C0EE0F0A94EAF7FC91FE2BFC932F5F12
:101EC0003F4F01968036A1E09A0751F02038310546
:101ED00038F439012034310528F6A0E0B2E0C7CF4C
:101EE00087010F5F1F4F475C5F4F483E38E0530745
:101EF00009F4A2C0C20193CF9C2C96012F5F3F4FE3
:101F00006901A0CF692F772767FD7095605371092C
:101F1000660F771F62957295707F7627607F7627B0
:101F2000AC80BD80688479848E819F8140E050E0E0
:101F3000A9814A2E512C8B0100951095FB0165015A
:101F4000D694C794D694C794D694C794B8E0CB16C9
:101F5000D10408F029CFC816D90609F467C0662451
:101F60006394712C912C920180E090E0B6010024E2
:101F7000769567950794769567950794762F602DEB
:101F8000FB87EA877D876C8738C070E4E71AF10821
:101F9000A0E0B0E0A20DB31DEA85FB85E80FF91FB4
:101FA000F695E795F695E795F695E795E40FF51F15
:101FB000E85DFB4FE4916C857D85E60EF71EAE0D66
:101FC000BF1DF0E07801E81AF90A77E0E722FF2464
:101FD00002C0F595E795EA94E2F7E170FF27092C36
:101FE00001C0EE0F0A94EAF7FC91FE2BFC930196D8
:101FF0002F5F3F4F8032910559F02038310540F472
:1020000079012034310508F0C0CFA0E0B2E0C2CFA2
:10201000EA85FB853FEFA31AB30A475C5F4F483E52
:1020200068E0560709F4C0CEC60189CF962C93010B
:102030002F5F3F4F390197CFB981BC5FB98383943C
:10204000EA81FB81E80DF11D9081911128CEB7CE78
:102050000C811D81C884D9848E819F8140E050E02D
:10206000B981AB2EB12CF801F695E795F695E79579
:10207000F695E795E830F10508F096CEE817F907F0
:1020800009F45CC0CC24C394D12C912C950180E838
:1020900091E0BF0100247695679507947695679542
:1020A0000794762F602D78013F0132C0005411094A
:1020B000A0E0B0E0A20DB31DFC01F695E795F69502
:1020C000E795F695E795E40FF51FE85DFB4FE49182
:1020D000060F171FA00FB11FF0E08C01009510959F
:1020E0000770112702C0F595E7950A95E2F7E170B0
:1020F000FF27092C01C0EE0F0A94EAF7FC91FE2B92
:10210000FC932F5F3F4F0196803AA1E09A0751F070
:102110002038310538F489012034310538F6A0E043
:10212000B2E0C8CF87010F5F1F4F475C5F4F483E4B
:1021300038E0530709F438CEC30195CF9C2C9601A3
:102140002F5F3F4F6901A2CF0C811D81C884D984C4
:102150008E819F8140E050E0B981AB2EB12C780197
:10216000F694E794F694E794F694E794E8E0EE1694
:10217000F10408F019CEE816F90609F45DC0CC2484
:10218000C394D12C912C950180E691E0B7010024F5
:10219000769567950794769567950794762F602DC9
:1021A000280134C0A0E46A1A7108A0E0B0E0A20DD2
:1021B000B31DFC01F695E795F695E795F695E7953D
:1021C000E40FF51FE85DFB4FE491660E771EA60D48
:1021D000B71DF0E03C016094709417E06122772411
:1021E00002C0F595E7956A94E2F7E170FF27092CA4
:1021F00001C0EE0F0A94EAF7FC91FE2BFC932F5FCF
:102200003F4F01968038A1E09A0751F02038310500
:1022100038F439012034310528F6A0E0B2E0C7CF08
:1022200082010F5F1F4F475C5F4F483E38E0530706
:1022300009F4BACDC70193CF9C2C96012F5F3F4F75
:102240006901A1CFB981B25EB9838394EA81FB8130
:10225000E80DF11D9081911122CDB1CDFC01569A6E
:10226000128613821282118210821386BD9680E03C
:1022700091E0DF019C011D9221503040E1F708956B
:10228000EF92FF920F931F93CF93DF93CDB7DEB7FB
:10229000DA950FB6F894DEBF0FBECDBF7C018B017F
:1022A0000E94D914F80120833183428353836483CD
:1022B0007583CE0101960E94081580E0FE013196DB
:1022C000D7019D9601900D928A95E1F7F701E45DA3
:1022D000FE4F10828981992787FD9095F701908B99
:1022E0008787D3950FB6F894DEBF0FBECDBFDF91C1
:1022F000CF911F910F91FF90EF900895FC0182857F
:10230000882371F1813091F4DB0112968D919C91BB
:10231000139720813181281739074CF491838083EA
:102320008485811104C0128640E002C0089541E016
:10233000DB0114968D919C9115972281338128178A
:1023400039079CF18217930754F493838283E40F37
:10235000F11D8385882309F43FC081508387089548
:10236000DB0112968D919C91139720813181281762
:102370003907A4F040E0DB0114968D919C911597EC
:102380002281338128173907D4F493838283E40FA1
:10239000F11D8385823080F01386089591838083B8
:1023A00081E08287148641E0E6CF93838283E40F45
:1023B000F11D8385843080F78F5F838708958217AE
:1023C00093076CF693838283E40FF11D838581115B
:1023D000C4CF82E08387089584E083870895FC0159
:1023E000DB0112968D919C911397208131812817E2
:1023F0003907A4F04285DB0114968D919C911597C5
:10240000228133812817390784F493838283E40F70
:10241000F11D83858230B0F0138608959183808307
:1024200081E08287148641E0E6CF821793074CF45F
:1024300093838283E40FF11D8385882331F08150DB
:10244000838708958F5F8387089582E08387089547
:10245000FC01DB0112968D919C91139720813181B3
:1024600028173907A4F04285DB0114968D919C91C1
:1024700015972281338128173907B4F49383828317
:10248000E40FF11D83858430E0F013860895918375
:1024900080834285DF01A40FB11D1B968C918111B1
:1024A000E3CF128640E0E0CF821793074CF493838A
:1024B0008283E40FF11D8385882331F08150838767
:1024C00008958F5F8387089584E083870895DB01F3
:1024D00014966D917C911597DC011296ED91FC910B
:1024E0001397E617F70764F413967C936E9312978D
:1024F000FC01E40FF11D8385821780F01386089597
:102500006E177F0754F4FC0173836283E40FF11D9F
:102510008385882331F08150838708958F5F838777
:1025200008952387089508954F925F926F927F9246
:102530008F929F92AF92CF92EF92FF920F931F9341
:10254000CF93DF93CDB7DEB7DA950FB6F894DEBF41
:102550000FBECDBF3C012B010E94640BF2018285AE
:102560008823C9F0182F113009F443C0D3950FB652
:10257000F894DEBF0FBECDBFDF91CF911F910F91B9
:10258000FF90EF90CF90AF909F908F907F906F9043
:102590005F904F90089580898F9387858F9380E017
:1025A00091E09F938F938E010F5F1F4F1F930F93A7
:1025B0000E945115980140E060E0C3010E94160E90
:1025C00023E031E044E169E6C3010E94880B27E083
:1025D00031E04EE260E0C3010E94880BF2011285F7
:1025E0000F900F900F900F900F900F90113009F0F7
:1025F000BDCF27E231E040E060E0C3010E94880BDC
:1026000029E331E049E060E0C3010E94880B21E446
:1026100031E042E160E0C3010E94880B26E531E031
:102620004BE160E0C3010E94880B2BE631E044E2FD
:1026300060E0C3010E94880B20E831E04DE260E0D9
:10264000C3010E94880BF2018285E80FF11D4385CA
:10265000F8E04F9F400D1124475F1F93812C912C70
:1026600088E0A82E96E6C92EE12CF12C00E010E0BF
:1026700020E030E06CE0C3010E94170A8DE2480EB2
:10268000511C5F924F9285E991E09F938F938E0149
:102690000F5F1F4F1F930F930E945115980146E340
:1026A00060E0C3010E94880B0FB6F894DEBF0FBE36
:1026B000CDBF5CCF1F920F920FB60F9211248F9354
:1026C0009F93AF93BF938091A9019091AA01A0918C
:1026D000AB01B091AC010196A11DB11D8093A90180
:1026E0009093AA01A093AB01B093AC01BF91AF91BD
:1026F0009F918F910F900FBE0F901F9018951F9272
:102700000F920FB60F9211244F935F936F937F93A5
:102710008F939F93AF93BF938DB391E089278DBB28
:10272000F8948091A9019091AA01A091AB01B09178
:10273000AC0178944091A5015091A6016091A70148
:102740007091A801841B950BA60BB70B0B97A105E5
:10275000B10570F4E89ABF91AF919F918F917F91ED
:102760006F915F914F910F900FBE0F901F90189532
:10277000489B05C05E981092AE031092AD03489935
:1027800015C08091AD039091AE03892B79F481E05F
:1027900090E09093AE038093AD038091AF0390914E
:1027A000B00301969093B0038093AF03F8948091A7
:1027B000A9019091AA01A091AB01B091AC017894CC
:1027C0008093A5019093A601A093A701B093A801BF
:1027D000C1CF1F920F920FB60F9211244F935F93A8
:1027E0006F937F938F939F93AF93BF938DB392E03B
:1027F00089278DBBF8948091A9019091AA01A0919D
:10280000AB01B091AC0178944091A1015091A2012B
:102810006091A3017091A401841B950BA60BB70BCB
:10282000C397A105B10570F4E99ABF91AF919F914B
:102830008F917F916F915F914F910F900FBE0F908D
:102840001F9018951F991CC08091B1039091B203FD
:1028500001979093B2038093B103F8948091A901FA
:102860009091AA01A091AB01B091AC0178948093B2
:10287000A1019093A201A093A301B093A401D4CF8E
:102880008091B1039091B20301969093B20380932B
:10289000B103E3CF1F920F920FB60F9211240BB624
:1028A0000F922F938F939F93EF93FF935E9AE091F4
:1028B000A001F0E08091CE00E355FE4F8083E091CF
:1028C000A001F0E0E355FE4F80818A3051F0809105
:1028D000A0018F3FA9F08091A0018F5F8093A0019C
:1028E00011C080E090E0FC01E355FE4F2081FC0127
:1028F000E355FD4F20830196811521E0920799F75A
:102900001092A0015E98FF91EF919F918F912F916E
:102910000F900BBE0F900FBE0F901F901895E1E621
:10292000F0E080E8808310828AB18C7F8AB9279892
:102930008BB183608BB92F9AE9E6F0E080818960E2
:1029400080838DB383608DBB859AE1E8F0E0808160
:102950008A6080838FEC97E0909389008093880051
:10296000EFE6F0E08081826080831092B0031092E5
:10297000AF031092AE031092AD031092B203109207
:10298000B1031092CD0087E68093CC0086E080935F
:10299000CA0088E98093C90078940895F8946091FA
:1029A000A9017091AA018091AB019091AC0178943A
:1029B0000895CF93DF93CDB7DEB72C970FB6F89479
:1029C000DEBF0FBECDBFF89486E0EDEAF3E0DE0196
:1029D000179601900D928A95E1F7789486E0FE01B2
:1029E0003796DE01119601900D928A95E1F72981C3
:1029F0003A814B815C816D817E8180E090E02C96F4
:102A00000FB6F894DEBF0FBECDBFDF91CF91089512
:102A1000F89461E070E020E030E002C09B01BA0170
:102A2000F901E355FD4F4081FC01E20FF31F4083A4
:102A3000AB014F5F5F4F411521E0520779F7789462
:102A40000895CF93DF93CDB7DEB7C353D5400FB60C
:102A5000F894DEBF0FBECDBF0E94AB08CE018F5FE2
:102A60009B4F0E942E110E948F14BE01625D7A4F0F
:102A7000CE018F5F9B4F0E944011BE01625D7A4F75
:102A8000CE018F5F9B4F0E947E11BE016F5F7B4F17
:102A9000CE0101960E949412CE0101960E942F0948
:102AA000E4CF0F931F93CF93DF93CDB7DEB72E976D
:102AB0000FB6F894DEBF0FBECDBF0D891E8986E02C
:102AC0008C831A8309838FEF9FE79E838D83AE01EA
:102AD000475E5F4F6F89788DCE0101960E94801509
:102AE000EF81F885E00FF11F10822E960FB6F89453
:102AF000DEBF0FBECDBFDF91CF911F910F91089523
:102B00002F923F924F925F926F927F928F929F92FD
:102B1000AF92BF92CF92DF92EF92FF920F931F93EB
:102B2000CF93DF93CDB7DEB72C970FB6F894DEBF07
:102B30000FBECDBF7C016B018A01FC01178216829A
:102B4000838181FFBDC1CE0101964C01F7019381C4
:102B5000F60193FD859193FF81916F01882309F41C
:102B6000ABC1853239F493FD859193FF81916F015B
:102B7000853229F4B70190E00E949117E7CF512CDC
:102B8000312C20E02032A0F48B3269F030F4803216
:102B900059F0833269F420612CC08D3239F08033D2
:102BA00039F4216026C02260246023C0286021C03F
:102BB00027FD27C030ED380F3A3078F426FF06C0E5
:102BC000FAE05F9E300D1124532E13C08AE0389E28
:102BD000300D1124332E20620CC08E3221F426FDDC
:102BE0006BC1206406C08C3611F4206802C08836A0
:102BF00041F4F60193FD859193FF81916F0181115D
:102C0000C1CF982F9F7D9554933028F40C5F1F4FB0
:102C1000FFE3F9830DC0833631F0833771F08335DC
:102C200009F05BC022C0F801808189830E5F1F4FCD
:102C300044244394512C540115C03801F2E06F0E26
:102C4000711CF801A080B18026FF03C0652D70E0E3
:102C500002C06FEF7FEFC5012C870E9486172C0101
:102C600083012C852F77222E17C03801F2E06F0EDA
:102C7000711CF801A080B18026FF03C0652D70E0B3
:102C800002C06FEF7FEFC5012C870E947B172C01DC
:102C90002C852068222E830123FC1BC0832D90E00D
:102CA00048165906B0F4B70180E290E00E949117EF
:102CB0003A94F4CFF50127FC859127FE81915F01BD
:102CC000B70190E00E94911731103A94F1E04F1A49
:102CD00051084114510471F7E5C0843611F089366A
:102CE00039F5F80127FF07C06081718182819381E6
:102CF0000C5F1F4F08C060817181882777FD809528
:102D0000982F0E5F1F4F2F76B22E97FF09C0909518
:102D10008095709561957F4F8F4F9F4F2068B22EA1
:102D20002AE030E0A4010E94C317A82EA81844C0CE
:102D3000853729F42F7EB22E2AE030E025C0F22F0D
:102D4000F97FBF2E8F36C1F018F4883579F0B4C002
:102D5000803719F0883721F0AFC02F2F2061B22EB5
:102D6000B4FE0DC08B2D8460B82E09C024FF0AC0AC
:102D70009F2F9660B92E06C028E030E005C020E104
:102D800030E002C020E132E0F801B7FE07C0608108
:102D90007181828193810C5F1F4F06C060817181B8
:102DA00080E090E00E5F1F4FA4010E94C317A82E81
:102DB000A818FB2DFF77BF2EB6FE0BC02B2D2E7F44
:102DC000A51450F4B4FE0AC0B2FC08C02B2D2E7E10
:102DD00005C07A2C2B2D03C07A2C01C0752C24FF42
:102DE0000DC0FE01EA0DF11D8081803311F4297EB2
:102DF00009C022FF06C07394739404C0822F8678A2
:102E000009F0739423FD13C020FF06C05A2C7314DD
:102E100018F4530C5718732C731468F4B70180E23C
:102E200090E02C870E94911773942C85F5CF731432
:102E300010F4371801C0312C24FF12C0B70180E311
:102E400090E02C870E9491172C8522FF17C021FF4C
:102E500003C088E590E002C088E790E0B7010CC0AD
:102E6000822F867859F021FD02C080E201C08BE2FA
:102E700027FD8DE2B70190E00E949117A51438F468
:102E8000B70180E390E00E9491175A94F7CFAA947B
:102E9000F401EA0DF11D8081B70190E00E949117C5
:102EA000A110F5CF332009F451CEB70180E290E0B4
:102EB0000E9491173A94F6CFF7018681978102C05C
:102EC0008FEF9FEF2C960FB6F894DEBF0FBECDBFED
:102ED000DF91CF911F910F91FF90EF90DF90CF90F6
:102EE000BF90AF909F908F907F906F905F904F902A
:102EF0003F902F900895FC010590615070400110A3
:102F0000D8F7809590958E0F9F1F0895FC01615012
:102F1000704001900110D8F7809590958E0F9F1FFB
:102F200008950F931F93CF93DF93182F092FEB0171
:102F30008B8181FD03C08FEF9FEF20C082FF10C007
:102F40004E815F812C813D81421753077CF4E881DB
:102F5000F9819F012F5F3F4F39832883108306C07B
:102F6000E885F985812F0995892B29F72E813F81E5
:102F70002F5F3F4F3F832E83812F902FDF91CF9183
:102F80001F910F910895FA01AA27283051F120319D
:102F900081F1E8946F936E7F6E5F7F4F8F4F9F4FED
:102FA000AF4FB1E03ED0B4E03CD0670F781F891F2F
:102FB0009A1FA11D680F791F8A1F911DA11D6A0FFD
:102FC000711D811D911DA11D20D009F468943F91B0
:102FD0002AE0269F11243019305D3193DEF6CF01AF
:102FE0000895462F4770405D4193B3E00FD0C9F775
:102FF000F6CF462F4F70405D4A3318F0495D31FDE2
:103000004052419302D0A9F7EACFB4E0A695979534
:10301000879577956795BA95C9F70097610571050A
:1030200008959B01AC010A2E069457954795379554
:103030002795BA95C9F7620F731F841F951FA01DAE
:063040000895F894FFCF93
:103046002564006D70680054656D703A2034304315
:1030560020286F6B290A546F727175652042696169
:10306600733A203630250020202020434F4E464913
:103076004755524154494F4E00203C204261636BF4
:103086000020202053637265656E203120436F6EE9
:10309600666967203E0020202053637265656E20B6
:1030A6003220436F6E666967203E002020205363FE
:1030B6007265656E203320436F6E666967203E0039
:1030C6002020204D697363656C6C616E656F757346
:1030D6002020203E0075736172743A20257300002B
:00000001FF
