:100000000C9460070C9475070C9475070C94750795
:100010000C9475070C9475070C9475070C94750770
:100020000C9475070C9475070C9475070C94750760
:100030000C9475070C9475070C9475070C94750750
:100040000C9475070C9475070C9475070C94750740
:100050000C9475070C9475070C9475070C94750730
:100060000C9475070C94750700000FFE000000004B
:1000700000000000000000000000FFFFC0000000C2
:1000800000000000000000000007FFFFF800007FF4
:10009000FF8001FFFFFFFF80001FFFFFFC00007FCC
:1000A000FF8001FFFFFFFF80003FFFFFFF0000FF19
:1000B000FF8001FFFFFFFF80007FFFFFFF8000FF49
:1000C000FF8001FFFFFFFF0000FFFFFFFF8001FF38
:1000D000FFC003FFFFFFFF0000FFFFFFFFC001FFA6
:1000E000FFC003FFFFFFFF0001FFFFFFFFE003FF73
:1000F000FFC003FFFFFFFF0001FFFFFFFFE003FF63
:10010000FFC003FFFFFFFE0003FFFFFFFFF003FF41
:10011000FFE007FFFFFFFE0003FFFFFFFFF007FF09
:10012000FFE007FFFFFFFE0003FFFE07FFF00FFFEA
:10013000FFE007FFFFFFFE0007FFFC03FFF80FFFD4
:10014000FFE007FFE000040007FFF801FFF81FFFD2
:10015000FFE007FFE000000007FFF801FFF81FFFC6
:10016000FFF00FFFC000000007FFFC00FFF83FFF9B
:10017000FFF00FFFC000000007FFFE00FFF83FFF89
:10018000FFF00FFFC000000007FFFF80FFF87FFFB8
:10019000FFF00FFFC000000003FFFFF000007FFF33
:1001A000FFF01FFFFFFFF80003FFFFFE0000FFFD51
:1001B000FFF81FFFFFFFF80001FFFFFF8000FFFCBB
:1001C000FFF81FFFFFFFF80001FFFFFFC001FFF86E
:1001D000FFF81FFFFFFFF80000FFFFFFE001FFF83F
:1001E000FFF81FFFFFFFF00000000000000000000C
:1001F00000000000000000000000000000000000FF
:1002000000000000000000000000000000000000EE
:1002100000000000000000000003FFFFFE07FFE0F9
:100220007FFC3FFFFFFFE0000001FFFFFF0FFFE04B
:10023000FFFC3FFFFFFFE00000007FFFFF0FFFC05C
:100240007FFC7FFFFFFFE00000000FFFFF9FFFC06C
:10025000FFFC7FFFFFFFE000000003FFFF9FFFFFA9
:10026000FFFE7FFE00000000000000FFFFBFFFFF59
:10027000FFFE7FFC000000000000007FFFFFFFFF8B
:10028000FFFEFFFC00000000FFFE007FFFFFFFFFFE
:10029000FFFEFFFC00000000FFFF003FFFFFFFFF2D
:1002A000FFFEFFFC00000000FFFF007FFFFFFFFFDD
:1002B000FFFFFFFC00000000FFFF80FFFFFFFFFFCC
:1002C000FFFFFFFDFFFF8000FFFFF3FFFFFFFFFFCA
:1002D000FFFFFFFFFFFF8000FFFFFFFFFFFFFFFFAC
:1002E000FFFFFFFFFFFF80007FFFFFFFFFFFFFFF1C
:1002F000FFFFFFFFFFFF80007FFFFFFFFFFFF80012
:100300007FFFFFFFFFFF80007FFFFFFFFFFFF00089
:100310003FFFFFFFFFFF00003FFFFFFFFFFFF00079
:100320003FFFFFFFFFFF00003FFFFFFFFFFFE00079
:100330003FFFFFFFFFFF00001FFFFFFFFFFFE00089
:100340003FFFFFFFFFFF00000FFFFFFFFFFFC000A9
:100350001FFFFFFFFFFF01F80FFFFFFFFFFFC000C0
:100360001FFFFFFFFFFE020403FFFFFFFFFF8000F0
:100370001FFFFFFFFFFE04F201FFFFFFFFFF8000F2
:100380001FFFFFFFFFFE048300FFFFFF7FFF000052
:100390001FFFFFFFFFFE0C91003FFFF87FFE0000F4
:1003A0000FFFFFFFFFFC08F10003FFC0000000008B
:1003B00000000000000004810000000000000000B8
:1003C0000000000000000492000000000000000097
:1003D0000000000000000606000000000000000011
:1003E000000000000000030C0000000000000000FE
:1003F00000000000000000F0001FF800001FF800DF
:1004000001FFF80003FFF80000007FC007FFFFC0F6
:100410000007FF801FFFFFE0003FF800003FF800EB
:10042000000000000000000000000000000FE000DD
:1004300000007FFE0001FFF8000FFFFE000FFFFF2E
:10044000000000FFC007FFFFC0003FFFE01FFFFFED
:10045000E000FFFE0000FFFE0000000000000000C2
:100460000001F00000000FE0000000FFFF0003FFAC
:10047000F8000FFFFF800FFFFF800000FFC007FFA5
:10048000FFC0007FFFE01FFFFFE001FFFF0001FF53
:10049000FF00000000000000000007FC0000000F4B
:1004A000E0000001FFFF8003FFF8000FFFFFC00F17
:1004B000FFFFC00001FFC007FFFFC000FFFFE01FFC
:1004C000FFFFE003FFFF8003FFFF8000000000004C
:1004D0000000001FFF0000000FE0000003FFFFC04E
:1004E00003FFF8000FFFFFC00FFFFFE00003FFC096
:1004F00007FFFFC001FFFFE01FFFFFE007FFFFC096
:1005000007FFFFC000000000000000001FFF000008
:10051000000FE0000003FFFFC003FFF8000FFFFF24
:10052000E00FFFFFE00003FFC007FFFFC003FFFF76
:10053000E01FFFFFE007FFFFC007FFFFC000000054
:1005400000000000003FFF8000000FE0000007FCFB
:100550003FE003FFF8000F803FE00E003FF0000790
:10056000FFC007FFFFC003FC00E01FFFFFE00FF824
:100570003FC00FF01FE000000000000000003F1F20
:100580008000000FE0000007F81FE003E7F8000C10
:10059000001FF000001FF0000FFFC007E000000781
:1005A000F8002000001FC00FF01FE00FE00FE00078
:1005B000000000000000007E0FC000000FE00000FF
:1005C0000FF00FF00207F80000000FF000000FF02E
:1005D000000FFFC007E0000007F0000000003FC070
:1005E0000FE00FE01FE00FF000000000000000002F
:1005F0007C07C000000FE000000FF00FF00007F8CC
:100600000000000FF000000FF0001FBFC007E00067
:10061000000FE0000000003FC00FE00FE01FC00728
:10062000F000000000000000007C07C000000FE0A8
:1006300000000FF00FF00007F80000000FF00000BE
:100640000FF0001FBFC007E000000FE00000000037
:100650007F800FE00FE01FC007F0000000000000E7
:1006600000007C07C000000FE000000FF00FF0005A
:1006700007F80000000FF000000FF0003F3FC00738
:10068000E000000FE0000000007F800FE00FE01F9F
:10069000C007F000000000000000007E0FC0000056
:1006A0000FE000001FE007F80007F80000000FF05F
:1006B00000001FE0007F3FC007E000000FC0000007
:1006C00000007F000FE00FE01FC007F800000000EF
:1006D000000000003F1FC000000FE000001FE00707
:1006E000F80007F80000001FF000007FE0007E3FE8
:1006F000C007E000001FC3F8000000FF000FF01F5C
:10070000C01FC007F800000000000000003FFF808D
:100710000C000FE000001FE007F80007F8000000E1
:100720001FE0003FFFC000FC3FC007EFF0001FCFFD
:10073000FF000000FF0007F01FC01FC007F8000007
:100740000000000000001FFF003C000FE000001F41
:10075000E007F80007F80000003FE0003FFF8001DD
:10076000FC3FC007FFFC001FDFFF800000FE00070A
:10077000F83FC01FC007F800000000000000001F85
:10078000FF01FE000FE000001FE3C7F80007F800BC
:1007900000003FC0003FFE0001F83FC007FFFF0020
:1007A0001FFFFFC00001FE0003FFFF801FE00FF8E6
:1007B000000000000000000007FC07F0000FE00050
:1007C000001FE7E7F80007F80000007FC0003FF8CF
:1007D0000003F03FC007FFFF801FFFFFE00001FCA8
:1007E0000001FFFF001FE00FF80000000000000004
:1007F0000001F03FC0000FE000001FE7E7F800072E
:10080000F8000000FF80003FFF0007F03FC007FF37
:10081000FFC01FFFFFE00003FC00007FFC000FF0A3
:100820001FF800000000000000000000FE00000FA4
:10083000E000001FE7E7F80007F8000001FF0000F4
:100840003FFF8007E03FC007FFFFE01FFC1FF000F5
:1008500003FC0000FFFE000FF83FF800000000005E
:100860000000000003F800000FE000001FE7E7F8B9
:100870000007F8000003FE00003FFFC00FC03FC0AC
:100880000780FFE01FF80FF00003F80001FFFF00F2
:100890000FFFFFF80000000000FFFF00001FE00056
:1008A000000FE000001FE3C7F80007F8000007FC96
:1008B0000000007FE00FC03FC004003FF01FF007C2
:1008C000F80007F80003FFFF8007FFFFF8000000B3
:1008D0000000FFFF00007F0000000FE000001FE0AD
:1008E00007F80007F800000FF80000001FF01F8055
:1008F0003FC000001FF01FF007F80007F80007F8DE
:100900003FC003FFFFF80000000000FFFF0001FCF4
:1009100007C00007C000001FE007F80007F800004C
:100920001FF00000000FF01F003FC000000FF81F75
:10093000E003F8000FF0000FF01FE001FFFBF800EC
:1009400000000000FFFF000FE01FF00007C00000E4
:100950001FE007F80007F800003FE00000000FF874
:100960001FFFFFFC000007F81FE003F8000FF00076
:100970000FE00FE000FFF3F80000000000FFFF00B1
:100980001F807FFC0007C000001FE007F80007F889
:1009900000007FC000000007F81FFFFFFC000007F9
:1009A000F81FE003F8000FE0001FC007F0003FC38E
:1009B000F80000000000FFFF001E007FFC0007C0E1
:1009C00000000FE007F00007F80000FF80000000C3
:1009D00007F81FFFFFFC000007F81FE003F8001FE7
:1009E000E0001FC007F0000003F00000000000FF5F
:1009F000FF001000FFFE00000000000FF00FF000ED
:100A000007F80000FF0000000007F81FFFFFFC00D0
:100A10000007F80FE003F8001FE0001FC007F00018
:100A20000007F000000000000000000001FC7E0054
:100A3000000000000FF00FF00007F80001FE0000BA
:100A4000000007F81FFFFFFC000007F80FE003F8A5
:100A5000001FC0001FC007F0000007F000000000EA
:100A6000000000000001F83F00000000000FF00F40
:100A7000F00007F80003FC0000000007F81FFFFF6C
:100A8000FC000007F80FE003F8003FC0001FC0079C
:100A9000F0000007F000000000000000000001F07E
:100AA0001F000000000007F01FE00007F80007F833
:100AB000000000000FF800003FC000000FF80FF02A
:100AC00007F8003F80001FC007F000000FE0000F94
:100AD000F000000000000001F01F0000000000070F
:100AE000F81FE00007F8000FF0000018001FF000EA
:100AF000003FC000000FF00FF007F0007F80001FE4
:100B0000E00FF000001FE0000FF000000000000008
:100B100001F01F000FE0000007FC3FE007FFFFFCB3
:100B20001FFFFFF01F807FF000003FC008003FF074
:100B300007F80FF0007F80000FF01FE006003FE095
:100B4000000FF000000000000001F83F000FE0007F
:100B50000003FFFFC007FFFFFC1FFFFFF01FFFFFA9
:100B6000F000003FC00F00FFE007FC1FF0007F0017
:100B7000000FF83FE007C0FFC0000FF000000000CA
:100B8000000001FC7E000FE0000001FFFF8007FF76
:100B9000FFFC1FFFFFF01FFFFFE000003FC00FFF43
:100BA000FFE003FFFFE000FF00000FFFFFE007FF93
:100BB000FF80000FF000000000000000FFFE000FAB
:100BC000E0000001FFFF8007FFFFFC1FFFFFF01F99
:100BD000FFFFC000003FC00FFFFFC003FFFFC000CA
:100BE000FE000007FFFFC007FFFF80000FF00000BE
:100BF00000000000007FFC000FE0000000FFFF008D
:100C000007FFFFFC1FFFFFF01FFFFF8000003FC03A
:100C10000FFFFF8001FFFFC001FE000003FFFF8008
:100C200007FFFF00000FF0000000000000007FFC45
:100C3000000FE00000003FFC0007FFFFFC1FFFFF6C
:100C4000F00FFFFE0000003FC00FFFFF0000FFFF9E
:100C50008001FE000001FFFF0007FFFC00000FF015
:100C6000000000000000001FF0000FE00000000F77
:100C7000F00007FFFFFC1FFFFFF000FFF000000087
:100C80003FC00FFFFC00003FFE0001FC000000FF22
:100C9000FE0007FFF800000FF00000000000000059
:100CA00007C000000000000000000000000000007D
:100CB000000000000000000000000000FFE0000055
:100CC0000FF80000000000001FF000007FC00000CF
:100CD0000000000000000000000000000000000014
:100CE0000114A261041200000000711CE17CDF739A
:100CF0008001020E73BCEE7FEE8B8318462EF3BC90
:100D0000EFC6318C7EE038804020008040810506AF
:100D10000000000004000000006230150114A7E686
:100D20008421144000018B231341018C58C201110E
:100D30008C631942118903286E318C631246318C01
:100D40004288094040200080A0800102000000008D
:100D5000040000000082080A0101FA0A804088406D
:100D600000029902157A028C58C47C81AC6308C2D7
:100D70001089034857318C630246315284840A201B
:100D800023BCF7B88EF30D226BCEF3EEFE46318C0A
:100D90007E8209150100A7110040BFF07C04A90C58
:100DA000E907C473C0080042BFFD08FBD0F90388FF
:100DB00056B1F47CE245552108820800006308C55D
:100DC000D189054256318C7104463154450206AA38
:100DD0000101F2A2A04088460008C9101F86288899
:100DE00058C47C84A46308C213892348467185686B
:100DF000124555511081080003E308FC91890582D2
:100E000056318C60E4463524488208550000AF4EC8
:100E100040211446019089211146288898C201007A
:100E20008463194211892328463184A512449B8981
:100E300020808800046308C08F8905425631F3E0A2
:100E400015455553D082080A0100A20DA0120002D8
:100E5000018073BEE139C873004102047C7CEE7EE0
:100E60000F8B9D1FC62E8362E23891893EE0381FAA
:100E700003FCF7B8818BA527462E8061E23C8A8867
:100E80007E62301500000000000000040000000039
:100E900000000000008000000000000000000000D2
:100EA0000000000000000000000000000000000042
:100EB0000E001800000080400000000380000000C9
:100EC00011241FBECFEFD8E0DEBFCDBF12E0A0E0FF
:100ED000B1E0E0E0FEE102C005900D92A234B1075E
:100EE000D9F70E94110C0C94FE0E0C94000008958A
:100EF0000895089598E0299845B1282F217030E091
:100F0000220F331F422B45B92A982A9A8695915071
:100F100091F72A980895CF93DF93EC0128985E9873
:100F20002BB1888130E4839FC0011124282B2BB979
:100F30005F982BB1898130E8839FC0011124282B51
:100F40002BB98A810E947A072B9825B18B8138E0D2
:100F5000839FC0011124282B25B92C9825B18C81A1
:100F600030E1839FC0011124282B25B9289A2898A5
:100F7000DF91CF9108950F931F93CF93DF93CDB758
:100F8000DEB72A970FB6F894DEBF0FBECDBF88EB51
:100F900088871E821F8281E089878A871B828983D6
:100FA0001A828C838D8318E0CE0106960E948B07EF
:100FB00088858F5F888700E0CE0101960E948B07AD
:100FC0000F5F0038C9F7115079F780E48887CE01A8
:100FD00006960E948B072A960FB6F894DEBF0FBEC6
:100FE000CDBFDF91CF911F910F91089580EC8AB909
:100FF0008FE384B92D9A0895CF93DF9300D000D06A
:101000001F92CDB7DEB78FE38B8319821A8281E0FE
:101010008C838D83CE0101960E948B070F900F90D9
:101020000F900F900F90DF91CF9108959F92AF9204
:10103000BF92CF92DF92EF92FF920F931F93CF93C5
:10104000DF93CDB7DEB72A970FB6F894DEBF0FBE99
:10105000CDBF7C0180E488871E821F8211E0198742
:101060001A87CE0106960E948B071E8388EB8B831E
:1010700019821A821C831D83870167018EEFD81A9B
:1010800099249394CE0101960E948B078B818F5FE8
:101090008B8319869A86E12CF12CF801EE0DFF1D49
:1010A00080818887CE0106960E948B078FEFE81A11
:1010B000F80A80E4E816F10481F799861A86E12C93
:1010C000F12C58018EEFB81AF501EE0DFF1D80814D
:1010D0008887CE0106960E948B078FEFE81AF80AE0
:1010E00080E4E816F10481F7005C1F4F0C151D0524
:1010F00049F62A960FB6F894DEBF0FBECDBFDF913A
:10110000CF911F910F91FF90EF90DF90CF90BF9004
:10111000AF909F9008952F923F924F925F926F925F
:101120007F928F929F92AF92BF92CF92DF92EF9277
:10113000FF920F931F93CF93DF93CDB7DEB76697E0
:101140000FB6F894DEBF0FBECDBF98878F8319010D
:1011500038018C2D93E0969487949A95E1F7942F1B
:10116000969596959695C42ED12C292F30E0A60100
:1011700078E0979F4019510911245C8B4B8B8E9C12
:10118000D0018F9CB00D9E9CB00D1124BE83AD8309
:10119000412C512C1A8A198A4A2D50E05A874987C6
:1011A000A62FB0E0BC87AB87A82EB12CBE86AD863B
:1011B000A80140955095588B4F8769897A89898510
:1011C0009A856817790708F084C089899A898C0DF7
:1011D0009D1D03E0969587950A95E1F78830910566
:1011E00008F077C02817390711F01C8A1B8A6D8117
:1011F0007E81640D751D7C836B832B853C8540E06F
:1012000050E0DC0116E0AA0FBB1F1A95E1F7BE8B78
:10121000AD8BAD84BE844A155B0508F04AC020380A
:10122000310508F046C079012034310528F0B0E4DA
:10123000EB1AF10860E001C061E0660F6A83198271
:101240006F817885A981BA816A0F7B1FFA01E60D4B
:10125000F71DA3E0F695E795AA95E1F7AB80BC8072
:10126000EA0DFB1DE20DF31DE491AD89BE89EA0E86
:10127000FB1E6E0D7F1DF0E0EF84F888E41AF50A7E
:10128000B7E0EB22FF2402C0F595E795EA94E2F778
:10129000E170FF270B8802C0EE0FFF1F0A94E2F7F0
:1012A000DB01FC91FE2BFC934F5F5F4F2F5F3F4FA5
:1012B000B0CF2B893C892F5F3F4F3C8B2B8B4989CB
:1012C0005A894F5F5F4F5A8B498B480C591C9C01C0
:1012D00074CF66960FB6F894DEBF0FBECDBFDF9118
:1012E000CF911F910F91FF90EF90DF90CF90BF9023
:1012F000AF909F908F907F906F905F904F903F90B6
:101300002F900895AC0168E020E030E0FA01E20F90
:10131000F31F10822F5F3F4F20343105B9F7615022
:10132000405C5F4F6111F0CF9C013E5F9C5F40E0ED
:1013300050E0F901E40FF51F10824F5F5F4F40341A
:101340005105B9F7205C3F4F2817390781F70895F9
:101350004F925F926F927F928F929F92AF92BF92C5
:10136000CF92DF92EF92FF920F931F93CF93DF9371
:1013700000D0CDB7DEB73C01D62E742F2901562FF1
:1013800065E0B62ED201ED912D01EE2361F1EA3038
:1013900019F4775F5D2DF6CF852F90E08C3791059E
:1013A00014F0775F5D2DFF27E7FDF095B097BE9EA7
:1013B0008001BF9E100D112420EE822E992493945B
:1013C00038E0A32E45E0C42EE12CF12C20EE3CE0C9
:1013D000472F652FC30159837A830E948B08598157
:1013E0005A5F7A81CFCF0F900F90DF91CF911F91ED
:1013F0000F91FF90EF90DF90CF90BF90AF909F90B4
:101400008F907F906F905F904F9008954F925F9272
:101410006F927F928F929F92AF92BF92CF92DF9204
:10142000EF92FF920F931F93CF93DF931F92CDB74D
:10143000DEB72C01562FD42E3901B12CF301EB0D60
:10144000F11D0081002309F46EC080ED800F8A3009
:10145000A8F4112707FD10950053110965E0000F4E
:10146000111F6A95E1F778EC872E99249394E8E2AE
:10147000AE2EF0E2CF2EE12CF12C46C00E32C1F49C
:1014800062EF650F28EC822E9924939438E2A32E04
:1014900040E2C42EE12CF12C00E411E028EF33E00F
:1014A0004D2DC20159830E948B0859815C5F39C060
:1014B0000D3269F408EC802E9924939488E2A82ECA
:1014C00090E2C92EE12CF12C00E611E01DC005329E
:1014D00069F4A8EC8A2E99249394B8E2AB2E10E21A
:1014E000C12EE12CF12C00E811E00EC00132B1F464
:1014F00078EC872E99249394E8E2AE2EF0E2CF2E7A
:10150000E12CF12C00EA11E028EF33E04D2D652F9E
:10151000C20159830E948B08598102C0003209F42C
:10152000525EB3948BCF0F90DF91CF911F910F91AB
:10153000FF90EF90DF90CF90BF90AF909F908F90F3
:101540007F906F905F904F90089520E031E040E1F0
:1015500060E10C94A809CF93DF93EC012BE131E01B
:1015600040E062E20E94A80928E231E042E16CE634
:10157000CE010E94A8092AE231E042E160E0CE01FA
:101580000E94A8092FE331E04BE160E0CE010E9408
:10159000A80924E531E044E260E0CE01DF91CF917B
:1015A0000C94A809EC010E948209CE010E94AB0AAA
:1015B000CE010E9416082FEF83E294EF2150804065
:1015C0009040E1F700C00000FFCF4F925F926F9212
:1015D0007F928F929F92AF92CF92DF92EF92FF9283
:1015E0000F931F93CF93DF93CDB7DEB728970FB636
:1015F000F894DEBF0FBECDBF3C010E9482091F924E
:1016000082E08F931F9280E48F9389E691E09F930D
:101610008F938E010F5F1F4F1F930F930E942D0C0E
:10162000980140E060E0C3010E94060A20E731E033
:1016300044E169E6C3010E94A80924E731E04EE2D3
:1016400060E1C3010E94A809C3010E9416082FEFA0
:101650008BE792E9215080409040E1F700C0000004
:101660000FB6F894DEBF0FBECDBF15E0CE010196D8
:101670002C01C3010E94820924E931E040E060E0CE
:10168000C3010E94A809C3010E9416089FEF29E622
:1016900088E1915020408040E1F700C00000C30184
:1016A0000E9482092FED31E040E060E0C3010E941A
:1016B000A809C3010E9416089FEF29E688E191500E
:1016C00020408040E1F700C00000115091F6C301B6
:1016D0000E948209C3010E94160888EC882E992472
:1016E000939498E2A92E20E8C22EE12CF12C00E080
:1016F00010E028EF33E040E060E0C3010E948B0877
:10170000C3010E9416089FEF2BE782E99150204009
:101710008040E1F700C00000C3010E94820930EE62
:10172000832E9924939448E0A42EE12CF12C00E020
:1017300010E020EE3CE040E060E0C3010E948B0836
:10174000C3010E9416089FEF2BE782E991502040C9
:101750008040E1F700C00000C3010E94820950E808
:10176000852E912C69E3A62EE12CF12C00E010E0EF
:1017700028E630E040E060E0C3010E948B08C3012E
:101780000E9416089FEF2BE782E99150204080408D
:10179000E1F700C0000075E0D72EEAE2EE2EE2E0AD
:1017A000FE2E00E010E0C3010E9482091F930F93F8
:1017B000FF92EF925F924F920E942D0C920140E0B7
:1017C00060E0C3010E94060A20E332E04EE260E1DD
:1017D000C3010E94A809C3010E9416080F5F1F4F92
:1017E0000F900F900F900F900F900F9005361105EE
:1017F000D1F6DA94B1F628960FB6F894DEBF0FBE94
:10180000CDBFDF91CF911F910F91FF90EF90DF90AF
:10181000CF90AF909F908F907F906F905F904F9000
:101820000895CF93DF93CDB7DEB7D4500FB6F894B9
:10183000DEBF0FBECDBF0E94F60780E00E947A0790
:101840000E94BB070E94FC07CE0101960E94D20AAB
:10185000CE0101960E941608F7CFAEE0B0E0E3E3B8
:10186000FCE00C94D50E0D891E8986E08C831A83CA
:1018700009838FEF9FE79E838D83AE01475E5F4FA5
:101880006F89788DCE0101960E944F0CEF81F8850B
:10189000E00FF11F10822E96E4E00C94F10EACE004
:1018A000B0E0E5E5FCE00C94C70E7C016B018A0119
:1018B000FC0117821682838181FFBDC1CE01019692
:1018C0004C01F7019381F60193FD859193FF81917E
:1018D0006F01882309F4ABC1853239F493FD8591FA
:1018E00093FF81916F01853229F4B70190E00E9446
:1018F000370EE7CF512C312C20E02032A0F48B3270
:1019000069F030F4803259F0833269F420612CC0E0
:101910008D3239F0803339F4216026C02260246092
:1019200023C0286021C027FD27C030ED380F3A3092
:1019300078F426FF06C0FAE05F9E300D1124532E86
:1019400013C08AE0389E300D1124332E20620CC063
:101950008E3221F426FD6BC1206406C08C3611F452
:10196000206802C0883641F4F60193FD859193FF0B
:1019700081916F018111C1CF982F9F7D9554933034
:1019800028F40C5F1F4FFFE3F9830DC0833631F05D
:10199000833771F0833509F05BC022C0F801808184
:1019A00089830E5F1F4F44244394512C540115C06A
:1019B0003801F2E06F0E711CF801A080B18026FFA3
:1019C00003C0652D70E002C06FEF7FEFC5012C876B
:1019D0000E942C0E2C0183012C852F77222E17C0FC
:1019E0003801F2E06F0E711CF801A080B18026FF73
:1019F00003C0652D70E002C06FEF7FEFC5012C873B
:101A00000E94210E2C012C852068222E830123FCAC
:101A10001BC0832D90E048165906B0F4B70180E250
:101A200090E00E94370E3A94F4CFF50127FC85919F
:101A300027FE81915F01B70190E00E94370E3110BF
:101A40003A94F1E04F1A51084114510471F7E5C07E
:101A5000843611F0893639F5F80127FF07C0608117
:101A60007181828193810C5F1F4F08C060817181F9
:101A7000882777FD8095982F0E5F1F4F2F76B22E07
:101A800097FF09C090958095709561957F4F8F4F16
:101A90009F4F2068B22E2AE030E0A4010E94690E18
:101AA000A82EA81844C0853729F42F7EB22E2AE02C
:101AB00030E025C0F22FF97FBF2E8F36C1F018F429
:101AC000883579F0B4C0803719F0883721F0AFC07D
:101AD0002F2F2061B22EB4FE0DC08B2D8460B82E46
:101AE00009C024FF0AC09F2F9660B92E06C028E0C7
:101AF00030E005C020E130E002C020E132E0F80132
:101B0000B7FE07C060817181828193810C5F1F4F96
:101B100006C06081718180E090E00E5F1F4FA401DC
:101B20000E94690EA82EA818FB2DFF77BF2EB6FEC7
:101B30000BC02B2D2E7FA51450F4B4FE0AC0B2FCAE
:101B400008C02B2D2E7E05C07A2C2B2D03C07A2C9D
:101B500001C0752C24FF0DC0FE01EA0DF11D80812E
:101B6000803311F4297E09C022FF06C07394739458
:101B700004C0822F867809F0739423FD13C020FFE0
:101B800006C05A2C731418F4530C5718732C731482
:101B900068F4B70180E290E02C870E94370E7394BE
:101BA0002C85F5CF731410F4371801C0312C24FFA5
:101BB00012C0B70180E390E02C870E94370E2C857D
:101BC00022FF17C021FF03C088E590E002C088E72C
:101BD00090E0B7010CC0822F867859F021FD02C039
:101BE00080E201C08BE227FD8DE2B70190E00E9408
:101BF000370EA51438F4B70180E390E00E94370E49
:101C00005A94F7CFAA94F401EA0DF11D8081B7012F
:101C100090E00E94370EA110F5CF332009F451CE89
:101C2000B70180E290E00E94370E3A94F6CFF701B8
:101C30008681978102C08FEF9FEF2C96E2E10C9492
:101C4000E30EFC010590615070400110D8F78095BB
:101C500090958E0F9F1F0895FC0161507040019078
:101C60000110D8F7809590958E0F9F1F08950F93C0
:101C70001F93CF93DF93182F092FEB018B8181FDE9
:101C800003C08FEF9FEF20C082FF10C04E815F81A5
:101C90002C813D81421753077CF4E881F9819F0133
:101CA0002F5F3F4F39832883108306C0E885F9856D
:101CB000812F0995892B29F72E813F812F5F3F4F77
:101CC0003F832E83812F902FDF91CF911F910F9112
:101CD0000895FA01AA27283051F1203181F1E894C2
:101CE0006F936E7F6E5F7F4F8F4F9F4FAF4FB1E00F
:101CF0003ED0B4E03CD0670F781F891F9A1FA11D0A
:101D0000680F791F8A1F911DA11D6A0F711D811D0A
:101D1000911DA11D20D009F468943F912AE0269FCF
:101D200011243019305D3193DEF6CF010895462F2E
:101D30004770405D4193B3E00FD0C9F7F6CF462F0F
:101D40004F70405D4A3318F0495D31FD4052419378
:101D500002D0A9F7EACFB4E0A69597958795779535
:101D60006795BA95C9F700976105710508959B01BC
:101D7000AC010A2E06945795479537952795BA9545
:101D8000C9F7620F731F841F951FA01D08952F921E
:101D90003F924F925F926F927F928F929F92AF92FB
:101DA000BF92CF92DF92EF92FF920F931F93CF9348
:101DB000DF93CDB7DEB7CA1BDB0B0FB6F894DEBFDF
:101DC0000FBECDBF09942A88398848885F846E8405
:101DD0007D848C849B84AA84B984C884DF80EE804F
:101DE000FD800C811B81AA81B981CE0FD11D0FB658
:101DF000F894DEBF0FBECDBFED010895F894FFCF7C
:101E000055432044617669730A0A2020466F726D3B
:101E1000756C6120526163696E6700496E666F2E52
:101E20002053656C656374007F00546F70205365A8
:101E30006374696F6E202020203E205B205D00428D
:101E40006F74746F6D2053656374696F6E203E20EC
:101E50005B205D004C454420426172202020202000
:101E60002020203E205B205D002532642E2564006A
:101E70006D70680054656D703A2034304320286FCF
:101E80006B290A546F7271756520426961733A203B
:101E9000363025004C494C27434845572043484598
:101EA000570A76322E320A49277665206E6F7420E3
:101EB0006265656E0A70726F6772616D6D65642030
:101EC000666F720A526567726574203C33203C333A
:101ED0000A0A24207375646F206B696C6C20004CB7
:101EE000494C274348455720434845570A76322EE8
:101EF000320A49277665206E6F74206265656E0A26
:101F000070726F6772616D6D656420666F720A52E0
:101F10006567726574203C33203C330A0A242073C1
:101F200075646F206B696C6C5F0025336425250038
:101F30004241545445525920435249544943414C1B
:021F400021007E
:00000001FF
